{
  "contractName": "FilesRegistry",
  "abi": [
    {
      "constant": true,
      "inputs": [
        {
          "name": "",
          "type": "bytes32"
        }
      ],
      "name": "hashesTimeVerified",
      "outputs": [
        {
          "name": "",
          "type": "uint256"
        }
      ],
      "payable": false,
      "stateMutability": "view",
      "type": "function"
    },
    {
      "constant": true,
      "inputs": [],
      "name": "attestorRegistryAddress",
      "outputs": [
        {
          "name": "",
          "type": "address"
        }
      ],
      "payable": false,
      "stateMutability": "view",
      "type": "function"
    },
    {
      "constant": true,
      "inputs": [],
      "name": "admin",
      "outputs": [
        {
          "name": "",
          "type": "address"
        }
      ],
      "payable": false,
      "stateMutability": "view",
      "type": "function"
    },
    {
      "inputs": [],
      "payable": false,
      "stateMutability": "nonpayable",
      "type": "constructor"
    },
    {
      "constant": false,
      "inputs": [
        {
          "name": "_address",
          "type": "address"
        }
      ],
      "name": "setAdmin",
      "outputs": [
        {
          "name": "",
          "type": "bool"
        }
      ],
      "payable": false,
      "stateMutability": "nonpayable",
      "type": "function"
    },
    {
      "constant": false,
      "inputs": [
        {
          "name": "_address",
          "type": "address"
        }
      ],
      "name": "setAttestorRegistryAddress",
      "outputs": [
        {
          "name": "",
          "type": "bool"
        }
      ],
      "payable": false,
      "stateMutability": "nonpayable",
      "type": "function"
    },
    {
      "constant": false,
      "inputs": [
        {
          "name": "_hash",
          "type": "bytes32"
        }
      ],
      "name": "attestFile",
      "outputs": [
        {
          "name": "",
          "type": "bool"
        }
      ],
      "payable": false,
      "stateMutability": "nonpayable",
      "type": "function"
    },
    {
      "constant": false,
      "inputs": [
        {
          "name": "_hash",
          "type": "bytes32"
        }
      ],
      "name": "removeFile",
      "outputs": [
        {
          "name": "",
          "type": "bool"
        }
      ],
      "payable": false,
      "stateMutability": "nonpayable",
      "type": "function"
    },
    {
      "constant": true,
      "inputs": [
        {
          "name": "_hash",
          "type": "bytes32"
        }
      ],
      "name": "isFileStored",
      "outputs": [
        {
          "name": "",
          "type": "bool"
        }
      ],
      "payable": false,
      "stateMutability": "view",
      "type": "function"
    },
    {
      "constant": true,
      "inputs": [
        {
          "name": "_hash",
          "type": "bytes32"
        }
      ],
      "name": "fileLastVerifiedTime",
      "outputs": [
        {
          "name": "",
          "type": "uint256"
        }
      ],
      "payable": false,
      "stateMutability": "view",
      "type": "function"
    }
  ],
  "bytecode": "0x608060405234801561001057600080fd5b50336000806101000a81548173ffffffffffffffffffffffffffffffffffffffff021916908373ffffffffffffffffffffffffffffffffffffffff160217905550610a1c806100606000396000f300608060405260043610610099576000357c0100000000000000000000000000000000000000000000000000000000900463ffffffff1680630bef429b1461009e5780635855b1ed146100e7578063704b6c021461012c57806376ba60fb146101875780637b479dc5146101cc578063b2d0f54c14610223578063c1052c471461027e578063f75a5e48146102c7578063f851a44014610310575b600080fd5b3480156100aa57600080fd5b506100cd6004803603810190808035600019169060200190929190505050610367565b604051808215151515815260200191505060405180910390f35b3480156100f357600080fd5b506101166004803603810190808035600019169060200190929190505050610507565b6040518082815260200191505060405180910390f35b34801561013857600080fd5b5061016d600480360381019080803573ffffffffffffffffffffffffffffffffffffffff16906020019092919050505061052c565b604051808215151515815260200191505060405180910390f35b34801561019357600080fd5b506101b66004803603810190808035600019169060200190929190505050610679565b6040518082815260200191505060405180910390f35b3480156101d857600080fd5b506101e1610691565b604051808273ffffffffffffffffffffffffffffffffffffffff1673ffffffffffffffffffffffffffffffffffffffff16815260200191505060405180910390f35b34801561022f57600080fd5b50610264600480360381019080803573ffffffffffffffffffffffffffffffffffffffff1690602001909291905050506106b7565b604051808215151515815260200191505060405180910390f35b34801561028a57600080fd5b506102ad6004803603810190808035600019169060200190929190505050610805565b604051808215151515815260200191505060405180910390f35b3480156102d357600080fd5b506102f660048036038101908080356000191690602001909291905050506109a4565b604051808215151515815260200191505060405180910390f35b34801561031c57600080fd5b506103256109cb565b604051808273ffffffffffffffffffffffffffffffffffffffff1673ffffffffffffffffffffffffffffffffffffffff16815260200191505060405180910390f35b6000336000600160009054906101000a900473ffffffffffffffffffffffffffffffffffffffff1690508073ffffffffffffffffffffffffffffffffffffffff16632e2f4e24836040518263ffffffff167c0100000000000000000000000000000000000000000000000000000000028152600401808273ffffffffffffffffffffffffffffffffffffffff1673ffffffffffffffffffffffffffffffffffffffff168152602001915050602060405180830381600087803b15801561042c57600080fd5b505af1158015610440573d6000803e3d6000fd5b505050506040513d602081101561045657600080fd5b810190808051906020019092919050505015156104db576040517f08c379a000000000000000000000000000000000000000000000000000000000815260040180806020018281038252600f8152602001807f4e6f7420616e206174746573746f72000000000000000000000000000000000081525060200191505060405180910390fd5b600060026000866000191660001916815260200190815260200160002081905550600192505050919050565b6000600260008360001916600019168152602001908152602001600020549050919050565b60008060009054906101000a900473ffffffffffffffffffffffffffffffffffffffff1673ffffffffffffffffffffffffffffffffffffffff163373ffffffffffffffffffffffffffffffffffffffff161415156105f2576040517f08c379a00000000000000000000000000000000000000000000000000000000081526004018080602001828103825260098152602001807f4e6f742061646d696e000000000000000000000000000000000000000000000081525060200191505060405180910390fd5b81600073ffffffffffffffffffffffffffffffffffffffff168173ffffffffffffffffffffffffffffffffffffffff161415151561062f57600080fd5b826000806101000a81548173ffffffffffffffffffffffffffffffffffffffff021916908373ffffffffffffffffffffffffffffffffffffffff1602179055506001915050919050565b60026020528060005260406000206000915090505481565b600160009054906101000a900473ffffffffffffffffffffffffffffffffffffffff1681565b60008060009054906101000a900473ffffffffffffffffffffffffffffffffffffffff1673ffffffffffffffffffffffffffffffffffffffff163373ffffffffffffffffffffffffffffffffffffffff1614151561077d576040517f08c379a00000000000000000000000000000000000000000000000000000000081526004018080602001828103825260098152602001807f4e6f742061646d696e000000000000000000000000000000000000000000000081525060200191505060405180910390fd5b81600073ffffffffffffffffffffffffffffffffffffffff168173ffffffffffffffffffffffffffffffffffffffff16141515156107ba57600080fd5b82600160006101000a81548173ffffffffffffffffffffffffffffffffffffffff021916908373ffffffffffffffffffffffffffffffffffffffff1602179055506001915050919050565b6000336000600160009054906101000a900473ffffffffffffffffffffffffffffffffffffffff1690508073ffffffffffffffffffffffffffffffffffffffff16632e2f4e24836040518263ffffffff167c0100000000000000000000000000000000000000000000000000000000028152600401808273ffffffffffffffffffffffffffffffffffffffff1673ffffffffffffffffffffffffffffffffffffffff168152602001915050602060405180830381600087803b1580156108ca57600080fd5b505af11580156108de573d6000803e3d6000fd5b505050506040513d60208110156108f457600080fd5b81019080805190602001909291905050501515610979576040517f08c379a000000000000000000000000000000000000000000000000000000000815260040180806020018281038252600f8152602001807f4e6f7420616e206174746573746f72000000000000000000000000000000000081525060200191505060405180910390fd5b4260026000866000191660001916815260200190815260200160002081905550600192505050919050565b60008060026000846000191660001916815260200190815260200160002054119050919050565b6000809054906101000a900473ffffffffffffffffffffffffffffffffffffffff16815600a165627a7a72305820243b64c9902f3e0d2e27d9f881615f17f7a893524d7e2a57fb20c0f2dcdeeb100029",
  "source": "pragma solidity ^0.4.23;\n\nimport \"./AttestorsRegistry.sol\";\n\ncontract FilesRegistry {\n\n    address public admin;\n\n    // might be swarm later\n    address public attestorRegistryAddress;\n    \n    // time when the file has been pushed/verified to be in IPFS\n    mapping (bytes32 => uint256) public hashesTimeVerified;\n\n    constructor() public {\n        admin = msg.sender;\n    }\n\n    modifier onlyAdmin() {\n        require(msg.sender == admin, \"Not admin\");\n        _;\n    }\n\n    modifier validAddress(address _address) {\n        require(_address != address(0x0));\n        _;\n    }\n\n    modifier isAttestor(address _sender) {\n        AttestorsRegistry attestorRegistryInstance = AttestorsRegistry(attestorRegistryAddress);\n        require(attestorRegistryInstance.isAttestor(_sender), \"Not an attestor\");\n        _;\n    }\n\n    function setAdmin(address _address) onlyAdmin validAddress(_address) public returns (bool) {\n        admin = _address;\n        return true;\n    }\n\n    function setAttestorRegistryAddress(address _address) onlyAdmin validAddress(_address) public returns (bool) {\n        attestorRegistryAddress = _address;\n        return true;\n    }\n\n    function attestFile(bytes32 _hash) isAttestor(msg.sender) public returns (bool) {\n        hashesTimeVerified[_hash] = block.timestamp;\n        return true;\n    }\n\n    function removeFile(bytes32 _hash) isAttestor(msg.sender) public returns (bool) {\n        hashesTimeVerified[_hash] = 0;\n        return true;\n    }\n\n    function isFileStored(bytes32 _hash) public view returns (bool) {\n        return hashesTimeVerified[_hash] > 0;\n    }\n\n    function fileLastVerifiedTime(bytes32 _hash) public view returns (uint256) {\n        return hashesTimeVerified[_hash];\n    }\n\n}",
  "sourcePath": "/Users/DavidBCG/work/ipfs-ethereum-file-attestation/ethereum/contracts/FilesRegistry.sol",
  "compiler": {
    "name": "solc",
    "version": "0.4.24+commit.e67f0147.Emscripten.clang"
  },
  "schemaVersion": "2.0.0",
  "updatedAt": "2018-06-07T21:36:23.957Z"
}